:020000040800F2
:1000000020050020D9010008CF1C00088118000835
:10001000CD1C000879070008791F000800000000C7
:10002000000000000000000000000000D31C0008D9
:100030007B07000800000000D11C0008D51C000848
:10004000F3010008F3010008F3010008F3010008C0
:10005000F3010008F3010008F3010008F3010008B0
:10006000F3010008F3010008F3010008F3010008A0
:10007000F3010008F3010008F3010008F301000890
:10008000F3010008F3010008F3010008F301000880
:10009000F3010008F3010008F3010008F301000870
:1000A000F3010008F3010008F3010008F301000860
:1000B000F3010008F3010008F3010008F301000850
:1000C000F3010008F3010008F3010008F301000840
:1000D000F3010008F3010008F3010008F301000830
:1000E000F3010008F3010008F3010008F301000820
:1000F000F3010008F3010008F3010008F301000810
:10010000F3010008F3010008F3010008F3010008FF
:10011000F3010008F30100087D1D0008F301000849
:10012000F3010008F3010008F3010008F3010008DF
:10013000F30100080000000000000000F3010008C7
:10014000F3010008F3010008F3010008F3010008BF
:10015000F3010008F3010008F3010008F3010008AF
:10016000F3010008F3010008F3010008F30100089F
:10017000F3010008F3010008F3010008000000008B
:1001800000000000F3010008000000000000000073
:10019000F30100080000000000000000F301000867
:1001A000000000000000000000000000F301000853
:1001B000F3010008F3010008F3010008F30100084F
:1001C000F3010008DFF80CD000F0B2FA0048004755
:1001D000D929000820050020064880470648004726
:1001E000FEE7FEE7FEE7FEE7FEE7FEE7FEE7FEE7E7
:1001F000FEE7FEE7611D0008C50100082DE9F05F7C
:100200000546002092469B46884606468146402485
:100210001BE0284641464746224600F045F9534632
:100220005A46C01A914110D311461846224600F092
:100230002CF92D1A67EB01084F46224601200021B8
:1002400000F023F917EB00094E41201EA4F1010430
:10025000DFDC484631462A464346BDE8F09FD2B22D
:1002600001E000F8012B491EFBD270470022F6E79F
:1002700010B513460A4604461946FFF7F0FF20461C
:1002800010BD2DE9FE4F81EA030404F0004421F083
:10029000004100944FF0000B23F0004350EA0104AA
:1002A0005ED052EA03045BD0C3F30A54C1F30A558B
:1002B0002C44A4F2F3340194A0FB0254C1F31301C3
:1002C00041F48011C3F3130343F4801301FB024490
:1002D00000FB034E840A970A44EA815447EA835795
:1002E000A4FB076802958D0A05FB07854FEA932C4E
:1002F00004FB0C542705029D4FEA065847EA1637BF
:10030000B5EB08056EEB070C870E920E47EA8117D6
:1003100042EA8312A7FB0201B6EB0B0164EB000477
:100320002B0D43EA0C335E1844EB1C50DA46514661
:10033000E7FB0201C5F313044FEA0B3343EA1453FE
:100340004FEA0432019C43EA0603A4F10C04029430
:10035000009CCDE900B400F0C6F803B0BDE8F08F12
:1003600000200146F9E72DE9F04D81EA030404F08D
:10037000004B21F0004514464FF0000A23F00041E5
:1003800050EA050220D054EA01021DD0C5F30A57F5
:100390000246C5F31303C1F31300C1F30A5640F438
:1003A000801543F48013A7EB0608101BD64608F20D
:1003B000FD3873EB050002D308F1010801E0921843
:1003C0005B41B8F1000F03DA00200146BDE8F08D73
:1003D00000204FF48011064684460EE0171B73EB95
:1003E000050705D3121B63EB050306434CEA010C1A
:1003F00049084FEA300092185B4150EA0107EDD1FD
:1004000052EA030012D082EA040083EA050108439D
:1004100005D0101BAB4106D20122002306E00022CA
:100420004FF0004302E06FF0010253101AEB060098
:100430004CEB085110EB0A0041EB0B01BDE8F04D0D
:1004400000F042B80EB540F2334102910021CDE9EF
:1004500000110A460B4600F046F803B000BD30B567
:100460000B46014600202022012409E021FA02F572
:100470009D4205D303FA02F5491B04FA02F528440C
:10048000151EA2F10102F1DC30BD202A04DB203A66
:1004900000FA02F1002070479140C2F1200320FAD7
:1004A00003F3194390407047202A04DB203A21FAD5
:1004B00002F00021704721FA02F3D040C2F120027D
:1004C000914008431946704710B5141E73F100049B
:1004D00008DA401C41F1000192185B411A4301D136
:1004E00020F0010010BD2DE9F04D92469B4611B160
:1004F000B1FA81F202E0B0FA80F220329046FFF7C2
:10050000C4FF04460F4640EA0A0041EA0B01534685
:100510005A46084313D0114653EA010019D0C8F1D6
:1005200040025046FFF7C0FF05460E46504659466A
:100530004246FFF7AAFF084305D0012004E0204609
:100540003946BDE8F08D0020054346EAE0762C43AD
:1005500037430A986305E40AA0EB08000022FD0A6D
:1005600044EA47540A3002D500200146E9E7010574
:1005700010196941DDE9084500196941BDE8F04DF0
:10058000A2E72DE9FE4F804681EA0300C00F0C462A
:10059000009021F0004123F00045B8EB0200A94192
:1005A00005D24046214690461C460B46024623F0A3
:1005B0000040104347D0270DC7F30A00C3F30A5188
:1005C0000290401A019040286BDAC3F3130040F404
:1005D000801B0098924620B10023D2EB030A63EB04
:1005E0000B0B01985946C0F140025046FFF74DFFF2
:1005F00006460D4650465946019A00F0ABF810EBFE
:1006000008006141002487EA115284EAE7731A4323
:1006100040D0009A62B3019A012A4FEA075215DCD2
:10062000001B61EB02014FF0004202EA0752CDE9E4
:100630000042001C41F5801132462B46FFF753FF64
:1006400003B0BDE8F08F40462146F9E7001B61EB9F
:100650000201001C41F5801300185B412018A2F52F
:10066000001747EB030140EAD570B6196D4111E060
:100670006D084FEA360645EAC0754FEA0752001B7F
:1006800061EB0201001C41F5801149084FEA30007E
:100690000019514132462B4603B0BDE8F04FFFF739
:1006A00013BF0098012240000023D0EB020263EB4D
:1006B000E073009821464FEAE074B8EB000061EB6C
:1006C0000401E9E783F000435BE781F0004158E76C
:1006D000C1F30A52C1F3130140F2FF3341F4801118
:1006E0009A4202DA00200146704740F233439A42B0
:1006F000A2F2334202DC5242FFF7D6BEFFF7C5BE7C
:1007000030B5041E71F1000404DB4FF00044404298
:1007100064EB0101141E73F1000405DB1C464FF06D
:100720000043524263EB0403994208BF904230BD3C
:10073000064C074D06E0E06840F0010394E807002E
:1007400098471034AC42F6D3FFF740FD182B000851
:10075000382B0008202A06DBCB17203A41FA02F09A
:1007600043EAE07306E041FA02F3D040C2F120020E
:100770009140084319467047FEE770472DE9F84F4E
:1007800000224FF0010803254FF00F0E0B6808FA06
:1007900002F42340A3426ED14E68012E05D0022EF2
:1007A00003D0112E01D0122E12D186684FEA420CCE
:1007B00005FA0CF7BE43CF6807FA0CF7374387609A
:1007C0004668A6430C79C4F3001494403443446053
:1007D000C668570005FA07FC8C6826EA0C06BC4080
:1007E0003443C4604C68022C01D0122C13D1D408BD
:1007F00000EB8404A346D4F8209054074FEAD46A4F
:100800000EFA0AF629EA06090E6906FA0AF646EA17
:100810000906CBF8206006680C7926EA0C0604F07D
:100820000304BC40344304604C68E40060D5334C9E
:10083000266846F480462660246822F0030604F405
:10084000804400942E4C3444A446D4F808489607BB
:10085000370F0EFA07F6B4432A4EB04201D10026F4
:100860001FE0294EB04201D101261AE0274EB042C6
:1008700002D1022615E03BE0254EB04201D103260D
:100880000FE0244EB04201D104260AE0224EB042CD
:1008900001D1052605E0214EB04201D1062600E037
:1008A0000726BE402643CCF808681D4E34684F68C2
:1008B0009C43FF0300D51C433460194E361D346839
:1008C0004F689C43BF0300D51C433460144E083668
:1008D00034684F689C43FF0200D51C433460104EBF
:1008E0000C3634684F689C43BF0200D51C4334600B
:1008F000521C102AFFF44AAFBDE8F88F443802407A
:1009000000300140000002400004024000080240A4
:10091000000C024000100240001402400018024087
:10092000003C01400AB1816170470904FBE7000007
:1009300001488068704700000000002070B5040086
:1009400025D094F83D00002520B984F83C5020467D
:1009500000F03EFA242084F83D002068016821F070
:10096000010101602068016841F4004101602068D4
:10097000016821F40041016000F0A2FB4D4A61686A
:10098000914201D84C4900E04C49884201D20120F3
:1009900070BD4B492368B0FBF1F15E6826F03F065D
:1009A0000E435E606368934206D94FF496735943D1
:1009B0004FF47A73B1FBF3F12368491C1E6A26F0E9
:1009C0003F06314319626168914210D84900401EC8
:1009D000B0FBF1F2521CC2F30B02042A01D2042034
:1009E00022E0B0FBF1F0401CC0F30B001CE0A26859
:1009F000F2B301EBC10303EB0116431EB3FBF6F3A5
:100A00005B1C43F480431B0549D092B301EBC10248
:100A100002EB0111401EB0FBF1F0401CC0F30B00D3
:100A200040F4804040F400402168CA694CF6FF73EE
:100A30009A431043C861D4E9071001432068026853
:100A400022F0C00211430160D4E903010143206890
:100A5000826848F2FF339A4311438160D4E905016B
:100A600008432168CA6822F0FF021043C86001E011
:100A70000EE016E02068016841F001010160256484
:100A8000202084F83D00256384F83E50002070BD8E
:100A900001EB4106431EB3FBF6F35B1CB3E70120F9
:100AA000C2E701EB4101401EB0FBF1F0401CC0F376
:100AB0000B00B7E7A086010080841E0000093D00FE
:100AC00040420F002DE9F84F1F4690468A460446E3
:100AD000DDF82890FFF72CFF054694F83D0020280C
:100AE00075D1192301226C492046009500F0CAFFF8
:100AF0000028F5D194F83C00012868D0012084F842
:100B00003C0020680168C90703D1016841F0010178
:100B100001602068016821F400610160222084F8EE
:100B20003D00102084F83E0000262664C4F824808E
:100B30006785608D20855948E0622B464A465146BC
:100B4000204600F0B5FE002878D1208D544F68B1C2
:100B5000012814D002282068016816D041F4806171
:100B60000160206841698069009087E020684169E0
:100B700081690091016841F4007101607EE02068A4
:100B8000016821F480610160F0E721F48061016077
:100B90002068016841F40061E2E7032848D8012891
:100BA0000AD0022814D04B46002239462046009530
:100BB00000F068FFD8BB27E02A464946204600F0EF
:100BC000E0FFA0BB20680069616A08704DE061E049
:100BD0004B46002239462046009500F053FF30BBBB
:100BE0002068016841F40071016020680069616A51
:100BF0000870606A401C6062218D491E2185618DEC
:100C0000491E618521682EE02068016821F4806119
:100C1000016020680069616A0870606A401C606257
:100C2000208D401E2085608D401E6085D0E705E048
:100C30002A464946204600F0A4FF10B10120BDE835
:100C4000F88F20680069616A0870606A401C606201
:100C5000218D491E2185618D491E618521684A6962
:100C6000D24352070AD409690170606A401C60626D
:100C7000208D401E2085608D401E6085208D0028BF
:100C80008BD1202084F83D0084F83E6084F83C60DD
:100C90000020D4E70220D2E7020010000000FFFF8E
:100CA000040001002DE9F84F1F4690468A4604468D
:100CB000DDF82890FFF73CFE054694F83D0020281B
:100CC0007FD11923012240492046009500F0DAFE29
:100CD000002876D194F83C00012872D0012084F8D5
:100CE0003C0020680168C90703D1016841F0010197
:100CF00001602068016821F400610160212084F80E
:100D00003D00102084F83E0000262664C4F82480AC
:100D10006785608D20852D48E0622B464A46514606
:100D2000204600F03BFE90B9206841698069009040
:100D300036E02A464946204600F056FF50B1206C66
:100D4000042804D12068016841F400710160012089
:100D5000BDE8F88F606A216800780861606A401C0D
:100D60006062618D491E6185218D491E89B2218590
:100D700022685369DB435B070BD451B100781061E3
:100D8000606A401C6062608D401E6085208D401E40
:100D900020852A464946204600F04EFE0028CED146
:100DA000208D0028C5D154F83D0B016841F4007135
:100DB0000160202004F81E09E67766770020C7E767
:100DC000FFE70220C4E70000020010000000FFFF60
:100DD000F0B587B0044614216846FFF747FA1A4970
:100DE000206888422DD11948016841F00401016052
:100DF000016801F004010591016841F00101016001
:100E00000068122400F0010005904FF400700125E5
:100E1000032604278DE8F10069460D48FFF7AEFC74
:100E200028028DE8F10069460A48FFF7A7FC074849
:100E30001030016841F400010160006800F4000016
:100E4000059007B0F0BD0000005C00403038024063
:100E50000008024000000240024881680278114404
:100E600081607047000000200B4810B5016841F414
:100E700000710160016841F480610160016841F422
:100E800080710160032000F06FF8002000F006F888
:100E900000F024F8002010BD003C024070B50D4D5C
:100EA00004464FF47A712878B1FBF0F00A490968DA
:100EB000B1FBF0F000F010FB48B9102C07D2002273
:100EC0002146501E00F030F800206C6070BD0120FB
:100ED00070BD0000000000200C0000200A4808B58A
:100EE000016841F480410160006800F48040009096
:100EF0000548001F016841F080510160006800F062
:100F00008050009008BD000044380240002809DBF2
:100F100000F01F02012191404009800000F1E02013
:100F2000C0F8001170470000F0B40E4B1B680C466F
:100F3000C3F30223C3F10705042D00D90425191DAD
:100F4000072901D2002300E0DB1E012606FA05F185
:100F5000491E214099409E40761E16403143F0BC08
:100F600001F01CB80CED00E0064900F0070208682B
:100F70004FF6FF03184040EA0220034A104308607E
:100F8000704700000CED00E00000FA052DE9F04785
:100F90000E46050065D0DFF81481D8F80000F7B2DE
:100FA00000F00F00B04207D288F80070D8F80000B7
:100FB00000F00F00B04254D128683D4C810712D593
:100FC000400703D5206840F4E050206028780007EF
:100FD00003D5206840F4604020602068A96820F0B4
:100FE000F000084320602878C0072DD03049686899
:100FF0000839012812D0022813D0032811D009681B
:10100000890700292DDA216821F0030101432160BD
:10101000FFF78EFC814641F2883A0EE009688903A9
:10102000EFE709688901ECE7FFF782FCA0EB090113
:10103000514502D90320BDE8F0872068696800F0B7
:101040000C00B0EB810FEFD1D8F80010404601F052
:101050000F01B14207D90770006800F00F00B042DD
:1010600001D00120E7E72878400705D52068E96826
:1010700020F4E050084320602878000706D5206857
:10108000296920F4604040EAC100206000F038F88F
:101090002168084AC1F30311515CC8400649086041
:1010A00006480068FFF7FAFE0020C4E7003C024053
:1010B00008380240002B00080C000020040000202B
:1010C0000448054900680968044AC1F38221515C5B
:1010D000C84070470C00002008380240102B000860
:1010E0000448054900680968044AC1F34231515C6B
:1010F000C84070470C00002008380240102B000840
:10110000224810B5006810F00C02214815D041109B
:10111000042A11D01D4C241F082A0FD00C2A0CD1F0
:101120002268236802F03F025B0221D52068C0F3E9
:101130008810A0FB010120E0084610BD226823684A
:1011400002F03F025B0205D52068C0F38810A0FBC7
:10115000010104E02168C1F38811A1FB0001002313
:10116000FFF74CF82168C1F30141491C49000AE02E
:101170002168C1F38811A1FB00010023FFF73EF8AD
:101180002168C1F30271B0FBF1F010BD08380240D4
:101190000024F4002DE9F84F0546DFF828B3007865
:1011A000ABF10407C007A7F1040451D0DBF800102D
:1011B0005846C1F3810101290FD00168C1F38101B3
:1011C000022902D13968490207D40068C0F38100BE
:1011D000032809D13868400206D52068800337D536
:1011E0006868002872D033E06868B0F5803F10D09E
:1011F000B0F5A02F206810D020F480302060206847
:1012000020F4802020606868A8B1FFF791FB0646B3
:101210000DE0206840F48030F4E740F48020206046
:10122000F7E700BFFFF784FB801B642878D82068AD
:101230008003F7D50CE0FFF77BFB064605E000BF17
:10124000FFF776FB801B6428F0D820688003F7D472
:101250002878DFF8749280074FF0000A46D5DBF853
:101260000010584611F00C0F0FD00168C1F3810136
:10127000022902D13968490207D50068C0F381000C
:10128000032809D13868400206D42068800715D5A4
:10129000E86801281AD111E0E868C0B10120C9F856
:1012A0000000FFF745FB064605E000BFFFF740FBE7
:1012B000801B0228BAD820688007F7D520682969E2
:1012C00020F0F80040EAC10020600FE0F7E0C9F824
:1012D00000A0FFF72DFB064605E000BFFFF728FB47
:1012E000801B02281CD820688007F7D428780007C4
:1012F00027D5DFF8D0817548696908F16C0881B19C
:1013000001210160FFF714FB064604E0FFF710FB24
:10131000801B022804D8D8F800008007F6D510E01A
:1013200089E0C0F800A0FFF703FB064605E000BF18
:10133000FFF7FEFA801B02287DD8D8F8000080074E
:10134000F6D42878400769D55E484FF00008383059
:101350000068C0000BD45B483830016841F0805110
:10136000016000684FF0010800F080500090584E76
:101370003068C00511D4306840F480703060FFF7E9
:10138000D7FA009006E000BFFFF7D2FA0099401AA2
:10139000022850D83068C005F6D54A4EA86868368D
:1013A00001280FD00528306810D020F001003060EF
:1013B000306820F004003060A868B8B1FFF7B8FAD0
:1013C00000900FE0306840F00100F4E740F00400C6
:1013D0003060F7E7FFF7ACFA0099411A41F2883024
:1013E000814264D830688007F4D50EE0FFF7A0FA98
:1013F000009007E0FFF79CFA0099411A41F288300B
:10140000814254D830688007F4D4B8F1000F05D079
:101410002C483830016821F080510160A869A8B3D8
:10142000DBF80010C1F38101022948D00228C9F875
:1014300060A005D000E03AE0FFF77AFA054639E00F
:10144000FFF776FA064604E0FFF772FA801B0228DF
:101450002DD820688001F7D4F5E907010843E96831
:101460001C4A490802EB0141AA6841EA821108437B
:10147000297C40EA0160297D40EA01703860012042
:10148000C9F86000FFF754FA054606E015E000BF12
:10149000FFF74EFA401B022809D820688001F7D5D3
:1014A0000BE000BFFFF744FA401B022802D90320DB
:1014B000BDE8F88F20688001F4D40020F8E701200F
:1014C000F6E700000838024000004742800E47421D
:1014D000007000400000FFFF10B5401EB0F1807F9B
:1014E00001D3012010BD4FF0E02460610F2160178F
:1014F00000F054FD0020A06107202061002010BDF5
:101500007047704770B590F83C20012A32D0012412
:1015100080F83C40022280F83D2003685A689D68AC
:1015200022F070060A6832435A60134B02689A42EE
:1015300014D0B2F1804F11D0104B9A420ED0104B04
:101540009A420BD00F4B9A4208D00F4B9A4205D0CB
:101550000E4B9A4202D00E4B9A4204D1496825F0B4
:1015600080031943916080F83D40002180F83C10D1
:10157000084670BD022070BD00000140000400401C
:1015800000080040000C0040000401400040014001
:101590000018004010B5040003D094F83D0010B1CD
:1015A00007E0012010BD002084F83C00204600F038
:1015B0000DF8022084F83D00211D206800F0E4FBB6
:1015C000012084F83D00002010BD000008B500682F
:1015D0000B49884212D10B48016841F010010160AB
:1015E0000068002200F01000009011463620FFF73E
:1015F0009BFCBDE808403620FFF788BC08BD000012
:1016000000100040403802400168CA6842F0010200
:10161000CA600068816801F00701062903D00168EB
:1016200041F00101016000207047704770B5044629
:10163000006801694FF00005C943890715D4C168E6
:10164000C943890711D4E91E016101202077206870
:1016500080698007204602D0FFF7E7FF04E000F032
:1016600098F8204600F096F8257720680169C9436C
:10167000490717D4C168C943490713D46FF004015F
:101680000161022020772068806910F4407F2046A5
:1016900002D0FFF7CAFF04E000F07BF8204600F01C
:1016A00079F8257720680169C943090716D4C1680C
:1016B000C943090712D46FF00801016104202077A3
:1016C0002068C0698007204602D0FFF7AEFF04E023
:1016D00000F05FF8204600F05DF82577206801698A
:1016E000C943C90617D4C168C943C90613D46FF0EA
:1016F00010010161082020772068C06910F4407F44
:10170000204602D0FFF791FF04E000F042F82046A7
:1017100000F040F8257720680169C943C90708D15E
:10172000C168C943C90704D1891E0161204600F080
:1017300033F820680169C943090609D4C168C9435F
:10174000090605D46FF0800101612046FFF7D8FE3D
:1017500020680169C943490609D4C168C9434906DB
:1017600005D46FF040010161204600F023F82068A5
:101770000169C94389060BD4C168C943890607D4E6
:101780006FF0200101612046BDE87040FFF7B9BE4F
:1017900070BD70477047000010B50068044988426A
:1017A00001D101F07DF8BDE8104001F061B9000001
:1017B00000100040704770B5040004D094F8390060
:1017C000002510B106E0012070BD84F83850204695
:1017D00000F022F8242084F839002068C16821F440
:1017E0000051C160204600F033FB2068016921F4FC
:1017F000904101612068416921F02A01416120681E
:10180000C16841F40051C160E563202084F83900CB
:1018100084F83A00002070BD10B586B0044614214B
:101820006846FEF723FD13492068884220D11248FC
:10183000016841F400310160006800F40030059057
:101840000D481038016841F00101016000686946E7
:1018500000F0010005900C20009002200190012072
:10186000029003200390072004900448FEF786FFAF
:1018700006B010BD00440040403802400000024065
:10188000FEE701684A69D24352050FD46FF48062C3
:101890004A61002140F8301F20224273817302699F
:1018A00042F004020261017301207047002070477A
:1018B0002DE9F84F0446C06A1E4693460D4621683E
:1018C0000A6842F480620A60082807D0012805D01F
:1018D00010F5803F02D0206B112804D120680168E8
:1018E00041F4807101604FF001195B4600224946C6
:1018F0002046009600F0C6F84FF4007840B120680A
:101900000068C00501D5C4F840800320BDE8F88F09
:101910002069DFF884A0B0F5804F0FD00620216841
:1019200000EAD51747F0F000086133465A460AF13D
:101930000601204600F0DAF858BB03E0E8B240F0B8
:1019400001001CE02168E8B2086133465A4651465E
:10195000204600F0CBF8E0B9206841698169009128
:10196000016841F4807101605B46002249462046CF
:10197000009600F087F80028C1D147F0F1002168F7
:10198000086133465A465146204600F0AFF8002819
:10199000BCD00120BAE7000002000100F8B50446FF
:1019A000C06A1E460D461746082807D0012805D0F4
:1019B00010F5803F02D0206B122804D12068016806
:1019C00041F480710160134600224FF0011120465E
:1019D000009600F057F840B120680068C00502D5B5
:1019E0004FF4007020640320F8BD2069B0F5804FEB
:1019F0000ED00620216800EAD51040F0F000086102
:101A000033463A460B49204600F070F878B902E0B8
:101A100005F0FE0000E0E8B22168086105493346A0
:101A20003A46891F204600F061F80028DCD00120EA
:101A3000F8BD00000800010070B516460D460446CA
:101A40000DE02046FFF71DFF08B1012070BD681CA6
:101A500005D0FEF76DFF801BA84207D835B120687E
:101A60004069C0434007ECD4002070BD002044F81A
:101A7000300F20216173A073216941F020012161A1
:101A80002073E2E72DE9F0471E4690460D460446D6
:101A9000C1F30747DDF8209008E0701C06D0FEF780
:101AA00047FFA0EB0900B0420FD876B12068012FA4
:101AB00018D0806925EA00000004000C14D0002131
:101AC0004145EAD00020BDE8F087002044F8300FFF
:101AD00020216173A073216941F0200121612073ED
:101AE0000120F0E74069E5E70121E9E72DE9F0474A
:101AF0009A4691460E46044600254FF02008C1F351
:101B0000074725E020684069C043400514D4206899
:101B1000016841F40071016021686FF480604861E0
:101B2000256384F83D8084F83E50206C40F004002A
:101B3000206484F83C501FE0B9F1FF3F08D0FEF765
:101B4000F7FEA0EB0A0149450CD8B9F1000F09D006
:101B50002068012F13D0806926EA00000004000CE1
:101B60000BD0CFE744F8305F84F80D80A57320696F
:101B700040F02000206125730120BDE8F087406916
:101B8000EAE72DE9F041002590460E46044620275D
:101B900017E04069C043C0060CD454F8301B6FF006
:101BA0001000486144F810596777A577206A2062D1
:101BB000257717E0FEF7BCFEA0EB0800B04208D87E
:101BC0003EB120684169C9434906E2D40020BDE81E
:101BD000F08144F8305F6773A573206940F02000FE
:101BE000206125730120F2E770B516460D460446C4
:101BF0000DE02046FFF745FE08B1012070BD681CCE
:101C000005D0FEF795FE801BA84207D835B12068A5
:101C10004069C0430006ECD4002070BD002044F8A9
:101C2000300F20216173A073216941F020012161EF
:101C30002073E2E730B587B014216846FEF716FB43
:101C40001E480024016841F004010160016801F0B0
:101C500004010591016841F080010160016801F013
:101C600080010591016841F001010160016801F006
:101C700001010591016841F0020101600068104D09
:101C800000F002000590002220212846FEF74AFEBF
:101C90004FF4005000900B48CDE9010469460A4812
:101CA000FEF76CFD202000900120CDE9010469467B
:101CB00028460394FEF762FD07B030BD303802407D
:101CC000000002400000211000080240FEE77047BB
:101CD00070477047FFF7C0B830B593B034216846FD
:101CE000FEF7C4FA14210DA8FEF7C0FA1A48002521
:101CF000016841F080510160006800F0805012904E
:101D00001648016821F4404141F4804101600068B7
:101D1000022400F44040129001200390102000940F
:101D200006940490CDE907504FF4A8700990042060
:101D3000CDE90A0468460C94FFF72CFA0DA90F2090
:101D400081E83100E002CDE9100502210DA8FFF77E
:101D50001DF913B030BD0000403802400070004053
:101D60000548016841F47001016003494FF00060CB
:101D7000803908607047000088ED00E00148FFF7F7
:101D800055BC00006C000020F0B50268254C264DC3
:101D9000264E274F274B4FF0804CA04209D060457C
:101DA00007D0A84205D0B04203D0B84201D0984233
:101DB00004D122F0700E4A6842EA0E02A0421BD003
:101DC000604519D0A84217D0B04215D0B84213D000
:101DD000984211D0184DA8420ED0184DA8420BD0F1
:101DE000174DA84208D0174DA84205D0164DA8425D
:101DF00002D0164DA84203D122F44075CA682A4386
:101E00004D6922F080022A4302608A68C2620A6831
:101E10008262A04201D0984201D109690163012187
:101E20004161F0BD00000140000400400008004096
:101E3000000C00400004014000400140004401400B
:101E40000048014000180040001C004000200040F5
:101E50002DE9F041044600680169E26821F440512F
:101E6000114301612169A068E26908436169114376
:101E700008432168CA6849F20C639A430243CA6066
:101E800020684169A26921F4407111434161E06910
:101E9000192764253226B0F5004F354A35492068A8
:101EA0004FF0000806D0884201D0904236D1FFF7AB
:101EB00017F935E0884201D0904202D1FFF710F9BE
:101EC00001E0FFF7FDF861684A18A0FB070148EB45
:101ED0000803FEF793F90146B0FBF5F00201B1FBF0
:101EE000F5F06FF01803584301EB800006EBC000DB
:101EF000B0FBF5F000F0F80002EB4002B1FBF5F0AA
:101F0000584301EB800006EBC000B0FBF5F000F099
:101F10000700216810448860BDE8F081FFF7D0F821
:101F200061688B0F8A00A0FB0701FEF767F9014685
:101F3000B0FBF5F06FF01802504301EB800006EBA8
:101F40000010B0FBF5F000F0F002B1FBF5F002EB91
:101F50000012B1FBF5F06FF01803584301EB80005D
:101F600006EB0010B0FBF5F000F00F00D1E7000029
:101F70000014014000100140FEE700000FB4054BC3
:101F800010B503A9044A029800F0EAF810BC5DF805
:101F900014FB00008F280008100000200907090E1C
:101FA000002804DB00F1E02080F80014704700F006
:101FB0000F0000F1E02080F8141D704702E008C80F
:101FC000121F08C1002AFAD170477047002001E0B3
:101FD00001C1121F002AFBD1704700002DE9FF5FED
:101FE00082B00021DDE90430020DDDF840B003438A
:101FF00018D044F61050A2F2FF3242431514119843
:1020000001281FD0A5EB0B00401C5FEA000A4FF02F
:1020100000064E4FDFF83891B046504615D5CAF14C
:10202000000413E0119801244AA3012801D16FEAAA
:102030000B010298119AC0E90031C0E9024206B0D2
:10204000BDE8F09FCBF10000DFE704460021404AE5
:10205000491842EB0450CDE9001012E0E00707D028
:1020600032463B4640464946FEF70BF980468946D4
:1020700032463B4610461946FEF703F906460F4620
:102080006410002CEAD1DDE90401DDE90023BAF196
:10209000000F06DAFEF7F5F842464B46FEF7F1F878
:1020A00005E0FEF760F942464B46FEF75CF9044650
:1020B0000E460022284BFEF723FB03D84FF0FF30DB
:1020C000014607E00022254B20463146FEF759FA2B
:1020D000FEF7FEFA102409E0002C0ADB0A22002396
:1020E000FEF78CF8039B30321A55641E50EA010249
:1020F000F2D1641C039AC4F111031444119A012A09
:1021000003D0012208430DD10AE0084304D0002087
:102110004FF0110B119072E7A3EB0B056D1E0DE054
:102120005B4504DD4FF0000205F1010504E003DA30
:102130004FF00002A5F10105002AECD00298119998
:10214000C0E90231C0E9004579E700000000144011
:102150000000F03F300000000000F0430000E03FCE
:102160002DE9FF4F95B09B468946064600250FE2B4
:10217000252877D100242746F84A0121059400E05C
:10218000044316F8013F203B01FA03F01042F7D157
:1021900030782A2811D06FF02F033078A0F1300268
:1021A000092A16D8059A44F0020402EB820203EBD6
:1021B00042021044761C0590EFE759F8042B059273
:1021C000002A03DA504244F40054059044F002041B
:1021D000761C30782E2816D116F8010F44F004042E
:1021E0002A280DD06FF02F023078A0F13003092B90
:1021F00009D807EB870302EB4303C718761CF3E704
:1022000059F8047B761C30786C280FD006DC4C28FB
:1022100017D068280DD06A2814D104E0742810D093
:102220007A280FD10DE044F400140AE044F480143D
:1022300001E044F440147278824202D104F5801423
:10224000761C761C307866280BD013DC582877D0A3
:1022500009DC002875D04528F6D04628F4D0472858
:102260001AD19DE118E0632835D0642879D065281B
:1022700012D195E1702873D008DC6728F1D0692865
:102280006FD06E280DD06F2806D1B5E073282CD002
:10229000752875D0782874D05A46179990476D1CC8
:1022A00075E1C4F30250022809D003280DD0D9F8F3
:1022B000001004280DD00D6009F1040967E1D9F878
:1022C0000010EA17C1E90052F6E7D9F800100D80B6
:1022D000F2E70D70F0E719F8041B8DF800100020EC
:1022E0008DF80100EA46012003E059F804AB4FF0F5
:1022F000FF3061074FF0000102D40DE008F1010149
:102300008846B9420FDA8045F8DB1AF80810002930
:10231000F4D108E008F1010188468142FADB1AF89D
:1023200008100029F6D105985B46A0EB0807214666
:102330003846179A00F094FA284400EB080507E0A5
:102340004DE029E10DE01AF8010B5A461799904724
:10235000B8F10108F7D25B4621463846179A13E1D7
:1023600042E00A220092C4F302524FF0000A022A0D
:1023700008D059F804CB032A4FEAEC710AD00DE0DB
:1023800029E02AE009F1070121F00702F2E802C181
:10239000914609E00FFA8CFC4FEAEC71042A03D154
:1023A0004FFA8CFC4FEAEC71002907DA0A4600214B
:1023B000DCF1000C61EB02012D2202E0220504D5C4
:1023C0002B228DF80420012203E0E20701D0202215
:1023D000F7E7904659E00A2102E010220DE01021B3
:1023E0004FF0000A00910BE010224FF0000A44F079
:1023F00004040827009203E008224FF0000A00922C
:10240000C4F30252022A05D059F804CB0021032A52
:1024100008D009E009F1070121F00702F2E802C142
:10242000914605E01FFA8CFC042A01D10CF0FF0C48
:102430004FF00008220728D5702806D0009B83F0B3
:10244000100353EA0A0305D00EE040228DF8042061
:10245000012208E05CEA010206D030228DF8042057
:102460008DF8050002229046009B83F0080353EA92
:102470000A030AD15CEA010201D1620705D53022C4
:102480008DF804204FF001087F1E582804D034A096
:1024900003900EA802900DE036A0F9E7534660467F
:1024A000009AFDF7ABFE84460398825C0298401EBA
:1024B000029002705CEA0100F0D1029806A9081AA5
:1024C00000F1200A600702D524F4803400E00127DF
:1024D000574502DDA7EB0A0000E0002000EB0A01EF
:1024E000009005984144401A0590E00306D45B46ED
:1024F0002146179A059800F0B3F90544002706E035
:1025000001A85A46C05D179990476D1C7F1C47452E
:10251000F6DBE0030CD55B462146179A059800F0E0
:102520009FF9054404E030205A46179990476D1CE6
:102530000099481E00900029F5DC08E002980299F5
:102540005A460078491C0291179990476D1CBAF1C0
:102550000001AAF1010AF1DC65E10000092801008F
:102560003031323334353637383961626364656609
:1025700000000000303132333435363738394142CB
:10258000434445460000000000F058F90544761C1D
:10259000307800287FF4ECAD19B02846BDE8F08F04
:1025A000620700D4062709F1070222F0070CFCE8B5
:1025B0000223E14603F000485FEA080C02D00FF264
:1025C000702C0DE05FEA045C02D50FF2682C07E086
:1025D0005FEAC47C02D00FF2602C01E0AFF2700C15
:1025E0004FF0FF3823F00043CDF850C065280CD0E1
:1025F00006DC452809D046281DD047283DD13DE0BE
:10260000662818D067287ED138E00021112F01DB21
:10261000112000E0781CCDE9000106A90EA8FFF703
:10262000DDFCDDE90F010E9A03910021009207F114
:10263000010A04914DE04FF000400097CDE90110F0
:1026400006A90EA8FFF7CAFCDDE90F0203920E9B54
:1026500011990022DDF80CA00093049211B9791CA5
:1026600000EB010AB7EB0A0004D4C0F1FF3007F118
:10267000010A0490AAEB0700019044E0012F00DA60
:1026800001270021112F01DD112000E03846CDE99E
:10269000000106A90EA8FFF7A1FCDDE90F010E9AC3
:1026A0000391002104910092BA4621070CD40399AA
:1026B000514500DA8A46BAF1010F05DD009AAAF108
:1026C0000101515C302908D0B84202DA10F1040F40
:1026D00006DA0121CDE9011015E0AAF10101E9E7CF
:1026E000002805DC049901440491AAEB000102E0F2
:1026F000411C514500DD8A460499401A401C019056
:102700004FF000400290200704D40198504501DBAF
:10271000CDF8048000208DF84F0002980DF14F078E
:10272000B0F1004F25D02B200E9002984FF00208F8
:1027300000280CDA404202902D200E9007E00A217A
:102740000298FDF78CFE3031029007F8011DB8F1B8
:102750000001A8F10108F2DC02980028EFD1791EEF
:102760000E980870307800F0200040F0450007F81F
:10277000020D12A8C01B00F107081498007800B1E0
:10278000012000EB0A01019801EBE071059841443A
:10279000401A401E0590E00306D45B462146179A76
:1027A000059800F05DF805441498007818B15A4671
:1027B000179990476D1CE00324D55B462146179A74
:1027C000059800F04DF805441CE00498002807DB4C
:1027D000DDE90301884203DD0098405C179901E0C0
:1027E000179930205A469047049805F10105401C7E
:1027F00004900198401E019004D12E205A4617994A
:1028000090476D1CBAF10001AAF1010ADDDC05E078
:1028100017F8010B5A46179990476D1CB8F1000143
:10282000A8F10108F4DC5B462146179A0598ABE64F
:102830002D0000002B000000200000002DE9F041D9
:10284000044600251E461746880404D405E0394690
:102850002020B0476D1C641EF9D52846BDE8F081E4
:102860002DE9F041044600251E469046C80301D5D7
:10287000302700E02027880404D505E0414638468B
:10288000B0476D1C641EF9D52846BDE8F08138B507
:1028900004468DF8000069460320ABBE204638BDD3
:1028A00070B53B202DED028B86B04FF47A748DF815
:1028B0000400012301AAD02130480094FEF7F2F968
:1028C0000E2301AAD1212D480094FEF7FBF8BDF894
:1028D0000610BDF8040049BA49428EB2BDF808108E
:1028E00040BA49BA4042494280B28DB2FDF7AAFDD2
:1028F0009FED238B53EC182BFDF7C3FC1F4CD834F2
:10290000C4E900013046FDF79DFD53EC182BFDF79F
:10291000B8FCC4E902012846FDF794FD53EC182BDE
:10292000FDF7AFFCC4E90401BDF80E10BDF80C00C2
:102930004DBABDF8101040BA4EBAFDF783FD9FEDB9
:10294000128B53EC182BFDF70EFDC4E90601284647
:10295000FDF778FD53EC182BFDF705FDC4E90801E0
:102960003046FDF76FFD53EC182BFDF7FCFCC4E976
:102970000A0106B0BDEC028B70BD000018000020FB
:10298000000000000000403F6666666666663040F4
:102990007CB51048FEF738FE1C208DF804000D4869
:1029A0000C244FF47A758DF80540022301AAD0213A
:1029B00054380095FEF776F91B208DF80400054881
:1029C0008DF80540022301AAD02154380095FEF766
:1029D00069F97CBD6C0000201CB5FEF745FAFFF7D5
:1029E0007BF9FFF727F91E481C49002401601D49A7
:1029F000C0E901144FF48041C0E90341446184619E
:102A0000C4610462FDF79AFF1548009454301649DA
:102A1000019401604AF20F41C0E9011440F2E7312C
:102A20008461C160FEF7B6FD0D48009469465430DC
:102A30000194FEF767FD0A480C49943001604FF499
:102A4000E131C0E901140C21C460C0E90441846192
:102A5000C461FEF7B0FEFFF79BFFFEE7005C00409D
:102A600018000020A0860100001000400044004033
:102A70001FB511A0FFF782FA124C13A094ED040BBE
:102A80008DED020B94ED020B8DED000B94ED000B20
:102A900053EC102BFFF772FA94ED0A0B11A08DED99
:102AA000020B94ED080B8DED000B94ED060B53EC2F
:102AB000102BFFF763FA1FBD2D2D2D2D2D2D2D2D44
:102AC0000A000000F0000020416363203A20256CDA
:102AD00066200920256C66200920256C66200920C7
:102AE0000A0000004779726F203A20256C662009A1
:102AF00020256C66200920256C662009200A00002C
:102B0000000000000000000001020304060708099D
:102B10000000000001020304382B00080000002020
:102B200014000000BC1F00084C2B000814000020FB
:102B30000C050000CC1F0008010000001000000080
:0C2B4000000000000024F4000000000071
:04000005080001C529
:00000001FF
