:020000040800F2
:1000000058050020D9010008671E0008D91900080A
:10001000651E00084D0800081121000800000000BE
:100020000000000000000000000000006B1E00083F
:100030004F08000800000000691E00086D1E00083F
:10004000F3010008F3010008F3010008F3010008C0
:10005000F3010008F3010008F3010008F3010008B0
:10006000F3010008F3010008F3010008F3010008A0
:10007000F3010008F3010008F3010008F301000890
:10008000F3010008F3010008F3010008F301000880
:10009000F3010008F3010008F3010008F301000870
:1000A000F3010008F3010008F3010008F301000860
:1000B000F3010008F3010008F3010008F301000850
:1000C000F3010008F3010008F3010008F301000840
:1000D000F3010008F3010008F3010008F301000830
:1000E000F3010008F3010008F3010008F301000820
:1000F000F3010008F3010008F3010008F301000810
:10010000F3010008F3010008F3010008F3010008FF
:10011000F3010008F3010008151F0008F3010008AF
:10012000F3010008F3010008F3010008F3010008DF
:10013000F30100080000000000000000F3010008C7
:10014000F3010008F3010008F3010008F3010008BF
:10015000F3010008F3010008F3010008F3010008AF
:10016000F3010008F3010008F3010008F30100089F
:10017000F3010008F3010008F3010008000000008B
:1001800000000000F3010008000000000000000073
:10019000F30100080000000000000000F301000867
:1001A000000000000000000000000000F301000853
:1001B000F3010008F3010008F3010008F30100084F
:1001C000F3010008DFF80CD000F02EFB00480047D8
:1001D000052C0008580500200648804706480047BF
:1001E000FEE7FEE7FEE7FEE7FEE7FEE7FEE7FEE7E7
:1001F000FEE7FEE7F91E0008C50100082DE9F05FE3
:100200000546002092469B46884606468146402485
:100210001BE0284641464746224600F01FFA534657
:100220005A46C01A914110D311461846224600F092
:1002300006FA2D1A67EB01084F46224601200021DD
:1002400000F0FDF917EB00094E41201EA4F1010456
:10025000DFDC484631462A464346BDE8F09FD2B22D
:1002600001E000F8012B491EFBD270470022F6E79F
:1002700010B513460A4604461946FFF7F0FF20461C
:1002800010BD2DE9FE4F804681EA0300C00F0C46E9
:10029000009021F0004123F00045B8EB0200A94195
:1002A00005D24046214690461C460B46024623F0A6
:1002B0000040104347D0270DC7F30A00C3F30A518B
:1002C0000290401A019040286BDAC3F3130040F407
:1002D000801B0098924620B10023D2EB030A63EB07
:1002E0000B0B01985946C0F14002504600F0A7F9A7
:1002F00006460D4650465946019A00F0BFF910EBEC
:1003000008006141002487EA115284EAE7731A4326
:1003100040D0009A62B3019A012A4FEA075215DCD5
:10032000001B61EB02014FF0004202EA0752CDE9E7
:100330000042001C41F5801132462B4600F0F6F9D0
:1003400003B0BDE8F08F40462146F9E7001B61EBA2
:100350000201001C41F5801300185B412018A2F532
:10036000001747EB030140EAD570B6196D4111E063
:100370006D084FEA360645EAC0754FEA0752001B82
:1003800061EB0201001C41F5801149084FEA300081
:100390000019514132462B4603B0BDE8F04F00F042
:1003A000B6B90098012240000023D0EB020263EBB3
:1003B000E073009821464FEAE074B8EB000061EB6F
:1003C0000401E9E783F000435BE781F0004158E76F
:1003D0002DE9FE4F81EA030404F0004421F00041BE
:1003E00000944FF0000B23F0004350EA01045ED06C
:1003F00052EA03045BD0C3F30A54C1F30A552C44F8
:10040000A4F2F3340194A0FB0254C1F3130141F4AC
:100410008011C3F3130343F4801301FB024400FB78
:10042000034E840A970A44EA815447EA8357A4FB9F
:10043000076802958D0A05FB07854FEA932C04FB9C
:100440000C542705029D4FEA065847EA1637B5EBCC
:1004500008056EEB070C870E920E47EA811742EAF9
:100460008312A7FB0201B6EB0B0164EB00042B0D1A
:1004700043EA0C335E1844EB1C50DA465146E7FB66
:100480000201C5F313044FEA0B3343EA14534FEA56
:100490000432019C43EA0603A4F10C040294009C7C
:1004A000CDE900B400F042F903B0BDE8F08F0020C0
:1004B0000146F9E72DE9F04D81EA030404F0004B11
:1004C00021F0004514464FF0000A23F0004150EAA5
:1004D000050220D054EA01021DD0C5F30A57024696
:1004E000C5F31303C1F31300C1F30A5640F480159A
:1004F00043F48013A7EB0608101BD64608F2FD381C
:1005000073EB050002D308F1010801E092185B418A
:10051000B8F1000F03DA00200146BDE8F08D00209D
:100520004FF48011064684460EE0171B73EB050757
:1005300005D3121B63EB050306434CEA010C490883
:100540004FEA300092185B4150EA0107EDD152EAC0
:10055000030012D082EA040083EA0501084305D0B3
:10056000101BAB4106D20122002306E000224FF00F
:10057000004302E06FF0010253101AEB06004CEB4F
:10058000085110EB0A0041EB0B01BDE8F04D00F003
:10059000BEB80EB5C10F80EAE0700844CA0700215A
:1005A00040F233438DE80E000A460B4600F0BEF8D9
:1005B00003B000BD00F0004230F000400AD0C10D91
:1005C00001F56071C0F3160042EA0151C20840070C
:1005D0001143704700200146704701F0004330B4DA
:1005E00021F0004150EA010206D00A0DA2F5607226
:1005F000C1F31301002A02DC30BC00207047440F15
:1006000044EAC104C100E01830BC00EBC25000F065
:1006100047B830B50B46014600202022012409E0EE
:1006200021FA02F59D4205D303FA02F5491B04FAAB
:1006300002F52844151EA2F10102F1DC30BD202A8A
:1006400004DB203A00FA02F1002070479140C2F129
:10065000200320FA03F3194390407047202A04DB5B
:10066000203A21FA02F00021704721FA02F3D0402B
:10067000C2F120029140084319467047202A06DB48
:10068000CB17203A41FA02F043EAE07306E041FA60
:1006900002F3D040C2F1200291400843194670474E
:1006A0000029A8BF7047401C490008BF20F0010086
:1006B000704710B4B0FA80FC00FA0CF050EA010464
:1006C00004BF10BC704749B1CCF1200421FA04F4F6
:1006D00011FA0CF118BF012121430843A3EB0C01CF
:1006E000CB1D4FEA00614FEA102042BF002010BC32
:1006F000704700EBC35010440029A4BF10BC7047E2
:10070000401C490008BF20F0010010BC704710B524
:10071000141E73F1000408DA401C41F10001921824
:100720005B411A4301D120F0010010BD2DE9F04DCD
:1007300092469B4611B1B1FA81F202E0B0FA80F222
:1007400020329046FFF77BFF04460F4640EA0A003E
:1007500041EA0B0153465A46084313D0114653EA67
:10076000010019D0C8F140025046FFF777FF054657
:100770000E46504659464246FFF761FF084305D0F2
:10078000012004E020463946BDE8F08D00200543F5
:1007900046EAE0762C4337430A986305E40AA0EB67
:1007A00008000022FD0A44EA47540A3002D500201E
:1007B0000146E9E7010510196941DDE9084500191D
:1007C0006941BDE8F04DA2E7C1F30A52C1F313013C
:1007D00040F2FF3341F480119A4202DA00200146D0
:1007E000704740F233439A42A2F2334202DC524253
:1007F000FFF734BFFFF723BF30B5041E71F10004CB
:1008000004DB4FF00044404264EB0101141E73F11D
:10081000000405DB1C464FF00043524263EB040327
:10082000994208BF904230BD064C074D06E0E06893
:1008300040F0010394E8070098471034AC42F6D327
:10084000FFF7C4FC942D0008B42D0008FEE77047A4
:100850002DE9F84F00224FF0010803254FF00F0E4D
:100860000B6808FA02F42340A3426ED14E68012EB1
:1008700005D0022E03D0112E01D0122E12D186687F
:100880004FEA420C05FA0CF7BE43CF6807FA0CF7A3
:10089000374387604668A6430C79C4F3001494403C
:1008A00034434460C668570005FA07FC8C6826EAA2
:1008B0000C06BC403443C4604C68022C01D0122C9E
:1008C00013D1D40800EB8404A346D4F82090540735
:1008D0004FEAD46A0EFA0AF629EA06090E6906FA00
:1008E0000AF646EA0906CBF8206006680C7926EA83
:1008F0000C0604F00304BC40344304604C68E4007C
:1009000060D5334C266846F480462660246822F081
:10091000030604F4804400942E4C3444A446D4F8D6
:1009200008489607370F0EFA07F6B4432A4EB0422E
:1009300001D100261FE0294EB04201D101261AE064
:10094000274EB04202D1022615E03BE0254EB042D0
:1009500001D103260FE0244EB04201D104260AE063
:10096000224EB04201D1052605E0214EB04201D110
:10097000062600E00726BE402643CCF808681D4E38
:1009800034684F689C43FF0300D51C433460194E04
:10099000361D34684F689C43BF0300D51C43346048
:1009A000144E083634684F689C43FF0200D51C4340
:1009B0003460104E0C3634684F689C43BF0200D53B
:1009C0001C433460521C102AFFF44AAFBDE8F88F74
:1009D0004438024000300140000002400004024060
:1009E00000080240000C02400010024000140240C7
:1009F00000180240003C0140426931EA020200D185
:100A00000904816170470AB1816170470904FBE7FD
:100A100001488068704700000000002070B50400A5
:100A200025D094F83D00002520B984F83C5020469C
:100A300000F04CFA242084F83D002068016821F081
:100A4000010101602068016841F4004101602068F3
:100A5000016821F40041016000F0D8FB4D4A616853
:100A6000914201D84C4900E04C49884201D2012012
:100A700070BD4B492368B0FBF1F15E6826F03F067C
:100A80000E435E606368934206D94FF496735943F0
:100A90004FF47A73B1FBF3F12368491C1E6A26F008
:100AA0003F06314319626168914210D84900401EE7
:100AB000B0FBF1F2521CC2F30B02042A01D2042053
:100AC00022E0B0FBF1F0401CC0F30B001CE0A26878
:100AD000F2B301EBC10303EB0116431EB3FBF6F3C4
:100AE0005B1C43F480431B0549D092B301EBC10268
:100AF00002EB0111401EB0FBF1F0401CC0F30B00F3
:100B000040F4804040F400402168CA694CF6FF730D
:100B10009A431043C861D4E9071001432068026872
:100B200022F0C00211430160D4E9030101432068AF
:100B3000826848F2FF339A4311438160D4E905018A
:100B400008432168CA6822F0FF021043C86001E030
:100B50000EE016E02068016841F0010101602564A3
:100B6000202084F83D00256384F83E50002070BDAD
:100B700001EB4106431EB3FBF6F35B1CB3E7012018
:100B8000C2E701EB4101401EB0FBF1F0401CC0F395
:100B90000B00B7E7A086010080841E0000093D001D
:100BA00040420F002DE9FF4F83B09A46DDE91197CF
:100BB00093460446DDF84080FFF72AFF054694F887
:100BC0003D00202870D1192301227149204600954B
:100BD00001F012F80028F5D194F83C00012863D008
:100BE000012084F83C0020680168C90703D101682E
:100BF00041F0010101602068016821F40061016099
:100C0000222084F83D00402084F83E00002626641F
:100C1000C4F82480A4F82A90608D20855D48E062A5
:100C2000CDE9007553465A462046049900F0ECFE83
:100C300000287CD1208DD0B1012821D00228206845
:100C400024D0416980690090208D032869D801284B
:100C50002BD0514902283B464FF00002009559D055
:100C60008846204600F0C8FF002860D13CE020689C
:100C7000416981690091016841F40071016077E088
:100C80002068016821F480610160F0E7016821F4C7
:100C9000806101602068016841F4006101602068A2
:100CA00041698069009063E06FE02A46394620463A
:100CB00001F021F898BB20680069616A08704EE075
:100CC0002068016841F40071016020680069616A70
:100CD0000870606A401C6062218D491E2185618D0B
:100CE000491E6185216838E02068016821F480612F
:100CF000016020680069616A0870606A401C606277
:100D0000208D401E2085608D401E60853B46002260
:100D100041460095204600F06FFF00B9D0E706E09D
:100D2000FFE72A463946204600F0E5FF18B10120CA
:100D300007B0BDE8F08F20680069616A0870606ADA
:100D4000401C6062218D491E2185618D491E61858F
:100D500021684A69D24352070AD409690170606A5E
:100D6000401C6062208D401E2085608D401E608585
:100D7000208D00287FF468AF202084F83D0084F89F
:100D80003E6084F83C600020D2E70220D0E70000FB
:100D9000020010000000FFFF040001002DE9FF4FDA
:100DA00083B09A46DDE9119793460446DDF840800A
:100DB000FFF72EFE054694F83D0020287FD1192329
:100DC000012240492046009500F016FF002876D108
:100DD00094F83C00012872D0012084F83C0020687F
:100DE0000168C90703D1016841F001010160206871
:100DF000016821F400610160212084F83D00402059
:100E000084F83E0000262664C4F82480A4F82A90C2
:100E1000608D20852C48E062CDE9007553465A4626
:100E20002046049900F06EFE70B930E02A4639463B
:100E3000204600F093FF58B1206C042804D12068AC
:100E4000016841F400710160012007B0BDE8F08F36
:100E5000606A216800780861606A401C6062218DC8
:100E6000491E89B22185628D521E628522685369AE
:100E7000DB435B070BD469B100781061606A401CEA
:100E80006062208D401E2085608D401E6085208D13
:100E90000028CBD12A463946204600F087FE00289C
:100EA000CAD154F83D0B016841F400710160202063
:100EB00004F81E09E67766770020C6E7FFE7022000
:100EC000C3E70000020010000000FFFF2DE9F04121
:100ED00086B0044614216846FFF7C8F92B4A2168FA
:100EE000DFF8AC802A48122401250326042708F1E4
:100EF0001008914219D1016841F0020101600068B7
:100F0000694600F002000590C0208DE8F1002148FC
:100F1000FFF79EFCD8F8001041F40011C8F800104B
:100F2000D8F8000000F400102BE01B4A914229D1B0
:100F3000016841F004010160016801F004010591BC
:100F4000016841F0010101600068694600F001009C
:100F5000059050158DE8F1001048FFF779FC4FF42B
:100F600080708DE8F10069460D48FFF771FCD8F8F4
:100F7000001041F40001C8F80010D8F8000000F497
:100F80000000059006B0BDE8F0810000005400406C
:100F90003038024000040240005C0040000802407B
:100FA0000000024002488168027811448160704765
:100FB000000000200B4810B5016841F40071016089
:100FC000016841F480610160016841F48071016051
:100FD000032000F06FF8002000F006F800F024F87D
:100FE000002010BD003C024070B50D4D04464FF48A
:100FF0007A712878B1FBF0F00A490968B1FBF0F08A
:1010000000F010FB48B9102C07D200222146501ED8
:1010100000F030F800206C6070BD012070BD000051
:10102000000000200C0000200A4808B5016841F4C7
:1010300080410160006800F4804000900548001F76
:10104000016841F080510160006800F0805000901C
:1010500008BD000044380240002809DB00F01F02F0
:10106000012191404009800000F1E020C0F800110A
:1010700070470000F0B40E4B1B680C46C3F302230C
:10108000C3F10705042D00D90425191D072901D234
:10109000002300E0DB1E012606FA05F1491E21406F
:1010A00099409E40761E16403143F0BC01F042B894
:1010B0000CED00E0064900F0070208684FF6FF0358
:1010C000184040EA0220034A1043086070470000BD
:1010D0000CED00E00000FA052DE9F0470E46050092
:1010E00065D0DFF81481D8F80000F7B200F00F00E7
:1010F000B04207D288F80070D8F8000000F00F0066
:10110000B04254D128683D4C810712D5400703D521
:10111000206840F4E05020602878000703D520685C
:1011200040F4604020602068A96820F0F000084387
:1011300020602878C0072DD0304968680839012818
:1011400012D0022813D0032811D00968890700297A
:101150002DDA216821F0030101432160FFF758FCDB
:10116000814641F2883A0EE009688903EFE7096891
:101170008901ECE7FFF74CFCA0EB0901514502D9CE
:101180000320BDE8F0872068696800F00C00B0EB30
:10119000810FEFD1D8F80010404601F00F01B142A5
:1011A00007D90770006800F00F00B04201D001209D
:1011B000E7E72878400705D52068E96820F4E05083
:1011C000084320602878000706D52068296920F4A4
:1011D000604040EAC100206000F038F82168084A09
:1011E000C1F30311515CC840064908600648006815
:1011F000FFF7FAFE0020C4E7003C02400838024036
:101200007C2D00080C000020040000200448054943
:1012100000680968044AC1F38221515CC8407047E4
:101220000C000020083802408C2D000804480549B5
:1012300000680968044AC1F34231515CC8407047F4
:101240000C000020083802408C2D0008224810B500
:10125000006810F00C02214815D04110042A11D06A
:101260001D4C241F082A0FD00C2A0CD12268236899
:1012700002F03F025B0221D52068C0F38810A0FB7A
:10128000010120E0084610BD2268236802F03F02F9
:101290005B0205D52068C0F38810A0FB010104E0C3
:1012A0002168C1F38811A1FB00010023FEF7A6FF0E
:1012B0002168C1F30141491C49000AE02168C1F3DA
:1012C0008811A1FB00010023FEF798FF2168C1F3FC
:1012D0000271B0FBF1F010BD083802400024F400A8
:1012E0002DE9F84F0546DFF828B30078ABF1040785
:1012F000C007A7F1040451D0DBF800105846C1F331
:10130000810101290FD00168C1F38101022902D1B5
:101310003968490207D40068C0F38100032809D165
:101320003868400206D52068800337D568680028F1
:1013300072D033E06868B0F5803F10D0B0F5A02FD0
:10134000206810D020F480302060206820F48020B5
:1013500020606868A8B1FFF75BFB06460DE02068D7
:1013600040F48030F4E740F480202060F7E700BFCD
:10137000FFF74EFB801B642878D820688003F7D5E0
:101380000CE0FFF745FB064605E000BFFFF740FB1A
:10139000801B6428F0D820688003F7D42878DFF811
:1013A000749280074FF0000A46D5DBF800105846CB
:1013B00011F00C0F0FD00168C1F38101022902D195
:1013C0003968490207D50068C0F38100032809D1B4
:1013D0003868400206D42068800715D5E8680128DF
:1013E0001AD111E0E868C0B10120C9F80000FFF788
:1013F0000FFB064605E000BFFFF70AFB801B022833
:10140000BAD820688007F7D52068296920F0F8004D
:1014100040EAC10020600FE0F7E0C9F800A0FFF744
:10142000F7FA064605E000BFFFF7F2FA801B022834
:101430001CD820688007F7D42878000727D5DFF864
:10144000D0817548696908F16C0881B1012101609A
:10145000FFF7DEFA064604E0FFF7DAFA801B0228FF
:1014600004D8D8F800008007F6D510E089E0C0F86D
:1014700000A0FFF7CDFA064605E000BFFFF7C8FA67
:10148000801B02287DD8D8F800008007F6D4287881
:10149000400769D55E484FF0000838300068C0004A
:1014A0000BD45B483830016841F08051016000681E
:1014B0004FF0010800F080500090584E3068C00591
:1014C00011D4306840F480703060FFF7A1FA0090CA
:1014D00006E000BFFFF79CFA0099401A022850D896
:1014E0003068C005F6D54A4EA868683601280FD086
:1014F0000528306810D020F001003060306820F0FE
:1015000004003060A868B8B1FFF782FA00900FE0DD
:10151000306840F00100F4E740F004003060F7E785
:10152000FFF776FA0099411A41F28830814264D877
:1015300030688007F4D50EE0FFF76AFA009007E004
:10154000FFF766FA0099411A41F28830814254D877
:1015500030688007F4D4B8F1000F05D02C4838303B
:10156000016821F080510160A869A8B3DBF8001080
:10157000C1F38101022948D00228C9F860A005D032
:1015800000E03AE0FFF744FA054639E0FFF740FA99
:10159000064604E0FFF73CFA801B02282DD820689D
:1015A0008001F7D4F5E907010843E9681C4A4908B6
:1015B00002EB0141AA6841EA82110843297C40EA12
:1015C0000160297D40EA017038600120C9F860009F
:1015D000FFF71EFA054606E015E000BFFFF718FA10
:1015E000401B022809D820688001F7D50BE000BF16
:1015F000FFF70EFA401B022802D90320BDE8F88F3E
:1016000020688001F4D40020F8E70120F6E700000C
:101610000838024000004742800E474200700040F8
:101620000000FFFF10B5401EB0F1807F01D3012004
:1016300010BD4FF0E02460610F21601700F07AFDCB
:101640000020A06107202061002010BD7047704776
:1016500070B590F83C20012A32D0012480F83C403B
:10166000022280F83D2003685A689D6822F07006C7
:101670000A6832435A60134B02689A4214D0B2F19E
:10168000804F11D0104B9A420ED0104B9A420BD083
:101690000F4B9A4208D00F4B9A4205D00E4B9A42FC
:1016A00002D00E4B9A4204D1496825F080031943B9
:1016B000916080F83D40002180F83C10084670BDE4
:1016C000022070BD000001400004004000080040FE
:1016D000000C0040000401400040014000180040A0
:1016E00010B5040003D094F83D0010B107E00120CC
:1016F00010BD002084F83C00204600F00DF80220C8
:1017000084F83D00211D206800F00AFC012084F8C7
:101710003D00002010BD000008B500680B4988425C
:1017200012D10B48016841F01001016000680022ED
:1017300000F01000009011463620FFF79BFCBDE83A
:1017400008403620FFF788BC08BD000000100040AC
:10175000403802400168CA6842F00102CA6000686D
:10176000816801F00701062903D0016841F00101F9
:10177000016000207047704770B504460068016939
:101780004FF00005C943890715D4C168C9438907CB
:1017900011D4E91E0161012020772068806980074B
:1017A000204602D0FFF7E7FF04E000F098F820465B
:1017B00000F096F8257720680169C943490717D4D6
:1017C000C168C943490713D46FF0040101610220C5
:1017D00020772068806910F4407F204602D0FFF710
:1017E000CAFF04E000F07BF8204600F079F8257786
:1017F00020680169C943090716D4C168C9430907AC
:1018000012D46FF008010161042020772068C069BC
:101810008007204602D0FFF7AEFF04E000F05FF83B
:10182000204600F05DF8257720680169C943C906A4
:1018300017D4C168C943C90613D46FF01001016100
:10184000082020772068C06910F4407F204602D02D
:10185000FFF791FF04E000F042F8204600F040F866
:10186000257720680169C943C90708D1C168C94300
:10187000C90704D1891E0161204600F033F82068B1
:101880000169C943090609D4C168C943090605D4D9
:101890006FF0800101612046FFF7D8FE20680169E2
:1018A000C943490609D4C168C943490605D46FF044
:1018B00040010161204600F029F820680169C94310
:1018C00089060BD4C168C943890607D46FF020018B
:1018D00001612046BDE87040FFF7B9BE70BD70479A
:1018E0007047000010B500680649884201D101F038
:1018F000ABF801F0E3F9BDE8104020210248FFF702
:101900007BB800000010004000000240704770B536
:10191000040004D094F83900002510B106E001203D
:1019200070BD84F83850204600F022F8242084F856
:1019300039002068C16821F40051C160204600F0E0
:1019400053FB2068016921F49041016120684169DD
:1019500021F02A0141612068C16841F40051C16051
:10196000E563202084F8390084F83A00002070BD37
:1019700010B586B0044614216846FEF777FC13497B
:101980002068884220D11248016841F4003101608A
:10199000006800F4003005900D481038016841F0EF
:1019A000010101600068694600F0010005900C200B
:1019B0000090022001900120029003200390072054
:1019C00004900448FEF744FF06B010BD00440040F8
:1019D0004038024000000240FEE701684A69D243F5
:1019E00052050FD46FF480624A61002140F8301F25
:1019F000202242738173026942F004020261017382
:101A000001207047002070472DE9F84F0446006818
:101A100089460B9D01689846174641F48061016034
:101A20002068016841F48071016000954FF0011B4E
:101A30000022594620460A9B00F0DEF84FF4007A57
:101A400040B120680068C00501D5C4F840A003205B
:101A5000BDE8F88F216809F0FE0008612B4628498F
:101A600020460A9A00F0FCF8F0BB206841698069C2
:101A700000902A4620460A9900F070F940B1206C87
:101A800004283AD12068016841F40071016034E013
:101A9000FEB2B8F1010F09D02168380A08612A4660
:101AA00020460A9900F05AF90028E8D1206806611A
:101AB0002A4620460A9900F051F90028DFD1206813
:101AC000016841F48071016000950022594620466A
:101AD0000A9B00F091F80028B3D1216809F0FF00BB
:101AE00040F00100086100E007E02B460449204671
:101AF0000A9A00F0B5F80028AAD00120A8E7000053
:101B0000020001002DE9F843044600680D46DDE9B6
:101B1000089701689846164641F4807101604B466B
:101B200000224FF001112046009700F065F848B1FF
:101B300020680068C00502D54FF4007020640320BF
:101B4000BDE8F883216805F0FE0008613B464A467F
:101B50001549204600F084F888B9206841698069F9
:101B600000903A464946204600F0F8F848B1206C0B
:101B7000042804D12068016841F40071016001204B
:101B8000DEE7F5B2B8F1010F09D02168300A08612B
:101B90003A464946204600F0E1F80028E7D120689F
:101BA00005610020CCE700000200010070B5164678
:101BB0000D4604460DE02046FFF70FFF08B1012057
:101BC00070BD681C05D0FEF723FF801BA84207D814
:101BD00035B120684069C0434007ECD4002070BD97
:101BE000002044F8300F20216173A073216941F077
:101BF000200121612073E2E72DE9F0471E4690465F
:101C00000D460446C1F30747DDF8209008E0701C3C
:101C100006D0FEF7FDFEA0EB0900B0420FD876B16A
:101C20002068012F18D0806925EA00000004000C0C
:101C300014D000214145EAD00020BDE8F087002003
:101C400044F8300F20216173A073216941F0200115
:101C5000216120730120F0E74069E5E70121E9E710
:101C60002DE9F0479A4691460E46044600254FF06E
:101C70002008C1F3074725E020684069C0434005BC
:101C800014D42068016841F40071016021686FF488
:101C900080604861256384F83D8084F83E50206C64
:101CA00040F00400206484F83C501FE0B9F1FF3F8D
:101CB00008D0FEF7ADFEA0EB0A0149450CD8B9F1FA
:101CC000000F09D02068012F13D0806926EA000098
:101CD0000004000C0BD0CFE744F8305F84F80D808F
:101CE000A573206940F02000206125730120BDE824
:101CF000F0874069EAE72DE9F041002590460E465D
:101D00000446202717E04069C043C0060CD454F8AD
:101D1000301B6FF01000486144F810596777A577C1
:101D2000206A2062257717E0FEF772FEA0EB08001C
:101D3000B04208D83EB120684169C9434906E2D49F
:101D40000020BDE8F08144F8305F6773A573206917
:101D500040F02000206125730120F2E770B516469F
:101D60000D4604460DE02046FFF737FE08B101207E
:101D700070BD681C05D0FEF74BFE801BA84207D83B
:101D800035B120684069C0430006ECD4002070BD26
:101D9000002044F8300F20216173A073216941F0C5
:101DA000200121612073E2E707490968C9070AD0C9
:101DB000054980390968C90705D04FF060410A68B4
:101DC000002AFCD008707047800E00E030B587B064
:101DD00014216846FEF74AFA1E480024016841F0C3
:101DE00004010160016801F004010591016841F0FE
:101DF00080010160016801F080010591016841F0F6
:101E000001010160016801F001010591016841F0E3
:101E1000020101600068104D00F0020005900022F0
:101E200020212846FEF7EFFD4FF4005000900B48AC
:101E3000CDE9010469460A48FEF70AFD202000901A
:101E40000120CDE90104694628460394FEF700FD10
:101E500007B030BD303802400000024000002110C1
:101E600000080240FEE7704770477047FFF79AB8D6
:101E700030B593B034216846FEF7F8F914210DA867
:101E8000FEF7F4F91A480025016841F0805101601D
:101E9000006800F0805012901648016821F440411B
:101EA00041F4804101600068022400F44040129037
:101EB000012003901020009406940490CDE907506F
:101EC0004FF4A87009900420CDE90A0468460C94E8
:101ED000FFF706FA0DA90F2081E83100E002CDE9F5
:101EE000100502210DA8FFF7F7F813B030BD000070
:101EF00040380240007000400548016841F470011C
:101F0000016003494FF000608039086070470000AD
:101F100088ED00E00148FFF72FBC0000C000002062
:101F2000F0B50268254C264D264E274F274B4FF023
:101F3000804CA04209D0604507D0A84205D0B042ED
:101F400003D0B84201D0984204D122F0700E4A6802
:101F500042EA0E02A0421BD0604519D0A84217D019
:101F6000B04215D0B84213D0984211D0184DA842B3
:101F70000ED0184DA8420BD0174DA84208D0174DCF
:101F8000A84205D0164DA84202D0164DA84203D152
:101F900022F44075CA682A434D6922F080022A4320
:101FA00002608A68C2620A688262A04201D09842D6
:101FB00001D10969016301214161F0BD00000140C7
:101FC0000004004000080040000C004000040140F4
:101FD000004001400044014000480140001800401A
:101FE000001C0040002000402DE9F041044600683C
:101FF0000169E26821F44051114301612169A0683F
:10200000E26908436169114308432168CA6849F2DB
:102010000C639A430243CA6020684169A26921F4B3
:10202000407111434161E069192764253226B0F5FA
:10203000004F354A354920684FF0000806D08842E5
:1020400001D0904236D1FFF7F1F835E0884201D057
:10205000904202D1FFF7EAF801E0FFF7D7F8616894
:102060004A18A0FB070148EB0803FEF7C7F8014632
:10207000B0FBF5F00201B1FBF5F06FF01803584327
:1020800001EB800006EBC000B0FBF5F000F0F800BB
:1020900002EB4002B1FBF5F0584301EB800006EB88
:1020A000C000B0FBF5F000F0070021681044886024
:1020B000BDE8F081FFF7AAF861688B0F8A00A0FBEA
:1020C0000701FEF79BF80146B0FBF5F06FF0180230
:1020D000504301EB800006EB0010B0FBF5F000F080
:1020E000F002B1FBF5F002EB0012B1FBF5F06FF07E
:1020F0001803584301EB800006EB0010B0FBF5F02D
:1021000000F00F00D1E70000001401400010014072
:10211000FEE700000FB4054B10B503A9044A02986E
:1021200000F0EAF810BC5DF814FB0000292A000852
:10213000100000200907090E002804DB00F1E02050
:1021400080F80014704700F00F0000F1E02080F8E4
:10215000141D704702E008C8121F08C1002AFAD1F6
:1021600070477047002001E001C1121F002AFBD117
:10217000704700002DE9FF5F82B00021DDE90430E7
:10218000020DDDF840B0034318D044F61050A2F21F
:10219000FF3242431514119801281FD0A5EB0B0004
:1021A000401C5FEA000A4FF000064E4FDFF83891FE
:1021B000B046504615D5CAF1000413E01198012429
:1021C0004AA3012801D16FEA0B010298119AC0E9D4
:1021D0000031C0E9024206B0BDE8F09FCBF100003B
:1021E000DFE704460021404A491842EB0450CDE99C
:1021F000001012E0E00707D032463B464046494611
:10220000FEF7E6F88046894632463B4610461946B8
:10221000FEF7DEF806460F466410002CEAD1DDE931
:102220000401DDE90023BAF1000F06DAFEF7D0F869
:1022300042464B46FEF7CCF805E0FEF73BF9424636
:102240004B46FEF737F904460E460022284BFEF7B0
:10225000D3FA03D84FF0FF30014607E00022254BA8
:1022600020463146FEF70DF8FEF7AEFA102409E0DD
:10227000002C0ADB0A220023FDF7C0FF039B30324B
:102280001A55641E50EA0102F2D1641C039AC4F18B
:1022900011031444119A012A03D0012208430DD1DD
:1022A0000AE0084304D000204FF0110B119072E7B0
:1022B000A3EB0B056D1E0DE05B4504DD4FF0000246
:1022C00005F1010504E003DA4FF00002A5F1010574
:1022D000002AECD002981199C0E90231C0E900450A
:1022E00079E70000000014400000F03F30000000DB
:1022F0000000F0430000E03F2DE9FF4F95B09B4602
:102300008946064600250FE2252877D10024274676
:10231000F84A0121059400E0044316F8013F203BF0
:1023200001FA03F01042F7D130782A2811D06FF06B
:102330002F033078A0F13002092A16D8059A44F00C
:10234000020402EB820203EB42021044761C059069
:10235000EFE759F8042B0592002A03DA504244F4BF
:102360000054059044F00204761C30782E2816D1D3
:1023700016F8010F44F004042A280DD06FF02F0244
:102380003078A0F13003092B09D807EB870302EB63
:102390004303C718761CF3E759F8047B761C3078A2
:1023A0006C280FD006DC4C2817D068280DD06A287E
:1023B00014D104E0742810D07A280FD10DE044F431
:1023C00000140AE044F4801401E044F440147278EC
:1023D000824202D104F58014761C761C307866287F
:1023E0000BD013DC582877D009DC002875D045289D
:1023F000F6D04628F4D047281AD19DE118E063288A
:1024000035D0642879D0652812D195E1702873D031
:1024100008DC6728F1D069286FD06E280DD06F28AE
:1024200006D1B5E073282CD0752875D0782874D0E3
:102430005A46179990476D1C75E1C4F30250022863
:1024400009D003280DD0D9F8001004280DD00D6054
:1024500009F1040967E1D9F80010EA17C1E900524F
:10246000F6E7D9F800100D80F2E70D70F0E719F8E3
:10247000041B8DF8001000208DF80100EA460120B1
:1024800003E059F804AB4FF0FF3061074FF0000153
:1024900002D40DE008F101018846B9420FDA804507
:1024A000F8DB1AF808100029F4D108E008F101015E
:1024B00088468142FADB1AF808100029F6D10598FF
:1024C0005B46A0EB080721463846179A00F094FABD
:1024D000284400EB080507E04DE029E10DE01AF87B
:1024E000010B5A4617999047B8F10108F7D25B469D
:1024F00021463846179A13E142E00A220092C4F3BB
:1025000002524FF0000A022A08D059F804CB032ADD
:102510004FEAEC710AD00DE029E02AE009F1070149
:1025200021F00702F2E802C1914609E00FFA8CFCA3
:102530004FEAEC71042A03D14FFA8CFC4FEAEC719C
:10254000002907DA0A460021DCF1000C61EB0201E8
:102550002D2202E0220504D52B228DF80420012231
:1025600003E0E20701D02022F7E7904659E00A2174
:1025700002E010220DE010214FF0000A00910BE064
:1025800010224FF0000A44F004040827009203E0F0
:1025900008224FF0000A0092C4F30252022A05D02A
:1025A00059F804CB0021032A08D009E009F10701FA
:1025B00021F00702F2E802C1914605E01FFA8CFC07
:1025C000042A01D10CF0FF0C4FF00008220728D597
:1025D000702806D0009B83F0100353EA0A0305D04D
:1025E0000EE040228DF80420012208E05CEA01029E
:1025F00006D030228DF804208DF805000222904686
:10260000009B83F0080353EA0A030AD15CEA010243
:1026100001D1620705D530228DF804204FF0010862
:102620007F1E582804D034A003900EA802900DE01D
:1026300036A0F9E753466046009AFDF7DFFD844671
:102640000398825C0298401E029002705CEA0100CE
:10265000F0D1029806A9081A00F1200A600702D5F5
:1026600024F4803400E00127574502DDA7EB0A007F
:1026700000E0002000EB0A01009005984144401A58
:102680000590E00306D45B462146179A059800F0B2
:10269000B3F90544002706E001A85A46C05D179922
:1026A00090476D1C7F1C4745F6DBE0030CD55B466D
:1026B0002146179A059800F09FF9054404E0302060
:1026C0005A46179990476D1C0099481E00900029A2
:1026D000F5DC08E0029802995A460078491C0291FC
:1026E000179990476D1CBAF10001AAF1010AF1DCBB
:1026F00065E10000092801003031323334353637C6
:10270000383961626364656600000000303132333D
:1027100034353637383941424344454600000000DD
:1027200000F058F90544761C307800287FF4ECADB1
:1027300019B02846BDE8F08F620700D4062709F1DA
:10274000070222F0070CFCE80223E14603F00048F0
:102750005FEA080C02D00FF2702C0DE05FEA045C17
:1027600002D50FF2682C07E05FEAC47C02D00FF2BA
:10277000602C01E0AFF2700C4FF0FF3823F0004303
:10278000CDF850C065280CD006DC452809D0462875
:102790001DD047283DD13DE0662818D067287ED15E
:1027A00038E00021112F01DB112000E0781CCDE979
:1027B000000106A90EA8FFF7DDFCDDE90F010E9A66
:1027C00003910021009207F1010A04914DE04FF0BE
:1027D00000400097CDE9011006A90EA8FFF7CAFC3A
:1027E000DDE90F0203920E9B11990022DDF80CA087
:1027F0000093049211B9791C00EB010AB7EB0A00AF
:1028000004D4C0F1FF3007F1010A0490AAEB0700DD
:10281000019044E0012F00DA01270021112F01DD92
:10282000112000E03846CDE9000106A90EA8FFF707
:10283000A1FCDDE90F010E9A0391002104910092A1
:10284000BA4621070CD40399514500DA8A46BAF1F9
:10285000010F05DD009AAAF10101515C302908D071
:10286000B84202DA10F1040F06DA0121CDE90110B5
:1028700015E0AAF10101E9E7002805DC049901440B
:102880000491AAEB000102E0411C514500DD8A469B
:102890000499401A401C01904FF00040029020071C
:1028A00004D40198504501DBCDF8048000208DF858
:1028B0004F0002980DF14F07B0F1004F25D02B20AB
:1028C0000E9002984FF0020800280CDA4042029065
:1028D0002D200E9007E00A210298FDF79AFE303174
:1028E000029007F8011DB8F10001A8F10108F2DC1F
:1028F00002980028EFD1791E0E980870307800F009
:10290000200040F0450007F8020D12A8C01B00F19E
:1029100007081498007800B1012000EB0A01019823
:1029200001EBE07105984144401A401E0590E00318
:1029300006D45B462146179A059800F05DF80544D9
:102940001498007818B15A46179990476D1CE00307
:1029500024D55B462146179A059800F04DF80544AA
:102960001CE00498002807DBDDE90301884203DD51
:102970000098405C179901E0179930205A4690471B
:10298000049805F10105401C04900198401E019037
:1029900004D12E205A46179990476D1CBAF10001B8
:1029A000AAF1010ADDDC05E017F8010B5A46179978
:1029B00090476D1CB8F10001A8F10108F4DC5B46FA
:1029C0002146179A0598ABE62D0000002B00000069
:1029D000200000002DE9F041044600251E46174660
:1029E000880404D405E039462020B0476D1C641EDD
:1029F000F9D52846BDE8F0812DE9F04104460025CF
:102A00001E469046C80301D5302700E020278804E1
:102A100004D505E041463846B0476D1C641EF9D523
:102A20002846BDE8F0810000054A914202D0054ADF
:102A3000914201D1FFF7B8B94FF0FF307047000065
:102A4000100000201400002070B52DED028B88B01E
:102A500064220E2103A88DE8070001233B22D02128
:102A60003F48FEF79FF8BDF80E10BDF80C0049BABC
:102A700049420EB2BDF8101040BA404249BA00B205
:102A80000DB2FDF786FD9FED378B53EC182BFDF74C
:102A90009FFCFDF7A2FD354C20603046FDF779FD27
:102AA00053EC182BFDF794FCFDF797FD606028466A
:102AB000FDF76FFD53EC182BFDF78AFCFDF78DFD3C
:102AC000A060BDF8120040BA00B2FDF762FD9FEDB4
:102AD000281B53EC112BFDF7EDFC9FED271B53EC4E
:102AE000112BFDF7CEFBFDF778FDFDF763FD41EC03
:102AF000100B23A053EC102BFFF70CFBBDF81610A6
:102B0000BDF8140049BA49420EB2BDF8181040BAD7
:102B1000404249BA00B20DB2FDF73BFD9FED198B63
:102B200053EC182BFDF7C6FCFDF757FDE06030466F
:102B3000FDF72FFD53EC182BFDF7BCFCFDF74DFD09
:102B400020612846FDF725FD53EC182BFDF7B2FC5C
:102B5000FDF743FD606108B0BDEC028B70BD000065
:102B600018000020000000000000403F400100204D
:102B70000000000000407540A4703D0AD743424069
:102B800025660A0066666666666630402DE9FF4186
:102B900000208DF80C00012503AE64240096CDE9D9
:102BA00001542B466B22D0211548FEF7F7F8072079
:102BB0008DF80C000096CDE9015401231922D02193
:102BC0000F48FEF7EBF818278DF80C700096CDE94A
:102BD000015401231B22D0210948FEF7DFF88DF8AC
:102BE0000C700096CDE9015401231C22D021044829
:102BF000FEF7D4F80248A830FEF7ACFDBDE8FF812F
:102C0000180000201CB5FEF7D5F9FFF731F9FFF7E2
:102C1000DDF825482349254D00240160C0E9015411
:102C20000E14C0E9034644618461C4610462FDF787
:102C3000F5FE1D48009454301D49019401604AF28C
:102C40000F41C0E9011440F2F3118461C160FEF745
:102C500047FD15480094694654300194FEF7F8FC8E
:102C60001148144954380160C0E90154C0E90346D1
:102C700044618461C4610462FDF7D0FE0A480E49D4
:102C8000943001604FF41651C0E901140C21C46066
:102C9000C0E904418461C461FEF739FEFFF776FFA5
:102CA000FEE70000005C00406C000020A0860100F0
:102CB0000010004000540040004400402DE9FF4156
:102CC0001CA0FFF727FADFF87880D8F80800FDF796
:102CD00071FC06460F46D8F80400FDF76BFC04466D
:102CE0000D46D8F80000FDF765FC8DE8F00041ECDA
:102CF000100B14A053EC102BFFF70CFAD8F81400AB
:102D0000FDF758FC06460F46D8F81000FDF752FCB8
:102D100004460D46D8F80C00FDF74CFC8DE8F00099
:102D200041EC100B0EA053EC102BFFF7F3F9BDE8AC
:102D3000FF8100002D2D2D2D2D2D2D2D0A000000A1
:102D400040010020416363203A0920252E36662089
:102D50000920256620092025662009200A00000098
:102D60004779726F203A0920252E366620092025E2
:102D70006620092025662009200A000000000000C6
:102D8000000000000102030406070809000000001B
:102D900001020304B42D0008000000201800000008
:102DA00054210008CC2D0008180000204005000028
:102DB0006421000801000000100000000000000075
:0C2DC0000024F4000000000000000000EF
:04000005080001C529
:00000001FF
